{
  "_format": "hh-sol-artifact-1",
  "contractName": "QueenOfBokNFT",
  "sourceName": "contracts/QueenOfBokNFT.sol",
  "abi": [
    {
      "inputs": [],
      "stateMutability": "nonpayable",
      "type": "constructor"
    },
    {
      "anonymous": false,
      "inputs": [
        {
          "indexed": true,
          "internalType": "address",
          "name": "owner",
          "type": "address"
        },
        {
          "indexed": true,
          "internalType": "address",
          "name": "approved",
          "type": "address"
        },
        {
          "indexed": true,
          "internalType": "uint256",
          "name": "tokenId",
          "type": "uint256"
        }
      ],
      "name": "Approval",
      "type": "event"
    },
    {
      "anonymous": false,
      "inputs": [
        {
          "indexed": true,
          "internalType": "address",
          "name": "owner",
          "type": "address"
        },
        {
          "indexed": true,
          "internalType": "address",
          "name": "operator",
          "type": "address"
        },
        {
          "indexed": false,
          "internalType": "bool",
          "name": "approved",
          "type": "bool"
        }
      ],
      "name": "ApprovalForAll",
      "type": "event"
    },
    {
      "anonymous": false,
      "inputs": [
        {
          "indexed": false,
          "internalType": "address",
          "name": "sender",
          "type": "address"
        },
        {
          "indexed": false,
          "internalType": "uint256",
          "name": "tokenId",
          "type": "uint256"
        }
      ],
      "name": "NewNFTMinted",
      "type": "event"
    },
    {
      "anonymous": false,
      "inputs": [
        {
          "indexed": true,
          "internalType": "address",
          "name": "previousOwner",
          "type": "address"
        },
        {
          "indexed": true,
          "internalType": "address",
          "name": "newOwner",
          "type": "address"
        }
      ],
      "name": "OwnershipTransferred",
      "type": "event"
    },
    {
      "anonymous": false,
      "inputs": [
        {
          "indexed": true,
          "internalType": "address",
          "name": "from",
          "type": "address"
        },
        {
          "indexed": true,
          "internalType": "address",
          "name": "to",
          "type": "address"
        },
        {
          "indexed": true,
          "internalType": "uint256",
          "name": "tokenId",
          "type": "uint256"
        }
      ],
      "name": "Transfer",
      "type": "event"
    },
    {
      "inputs": [
        {
          "internalType": "address",
          "name": "to",
          "type": "address"
        },
        {
          "internalType": "uint256",
          "name": "tokenId",
          "type": "uint256"
        }
      ],
      "name": "approve",
      "outputs": [],
      "stateMutability": "nonpayable",
      "type": "function"
    },
    {
      "inputs": [
        {
          "internalType": "address",
          "name": "owner",
          "type": "address"
        }
      ],
      "name": "balanceOf",
      "outputs": [
        {
          "internalType": "uint256",
          "name": "",
          "type": "uint256"
        }
      ],
      "stateMutability": "view",
      "type": "function"
    },
    {
      "inputs": [
        {
          "internalType": "uint256",
          "name": "tokenId",
          "type": "uint256"
        }
      ],
      "name": "getApproved",
      "outputs": [
        {
          "internalType": "address",
          "name": "",
          "type": "address"
        }
      ],
      "stateMutability": "view",
      "type": "function"
    },
    {
      "inputs": [
        {
          "internalType": "address",
          "name": "owner",
          "type": "address"
        },
        {
          "internalType": "address",
          "name": "operator",
          "type": "address"
        }
      ],
      "name": "isApprovedForAll",
      "outputs": [
        {
          "internalType": "bool",
          "name": "",
          "type": "bool"
        }
      ],
      "stateMutability": "view",
      "type": "function"
    },
    {
      "inputs": [],
      "name": "mintNFT",
      "outputs": [],
      "stateMutability": "nonpayable",
      "type": "function"
    },
    {
      "inputs": [],
      "name": "name",
      "outputs": [
        {
          "internalType": "string",
          "name": "",
          "type": "string"
        }
      ],
      "stateMutability": "view",
      "type": "function"
    },
    {
      "inputs": [],
      "name": "owner",
      "outputs": [
        {
          "internalType": "address",
          "name": "",
          "type": "address"
        }
      ],
      "stateMutability": "view",
      "type": "function"
    },
    {
      "inputs": [
        {
          "internalType": "uint256",
          "name": "tokenId",
          "type": "uint256"
        }
      ],
      "name": "ownerOf",
      "outputs": [
        {
          "internalType": "address",
          "name": "",
          "type": "address"
        }
      ],
      "stateMutability": "view",
      "type": "function"
    },
    {
      "inputs": [],
      "name": "renounceOwnership",
      "outputs": [],
      "stateMutability": "nonpayable",
      "type": "function"
    },
    {
      "inputs": [
        {
          "internalType": "address",
          "name": "from",
          "type": "address"
        },
        {
          "internalType": "address",
          "name": "to",
          "type": "address"
        },
        {
          "internalType": "uint256",
          "name": "tokenId",
          "type": "uint256"
        }
      ],
      "name": "safeTransferFrom",
      "outputs": [],
      "stateMutability": "nonpayable",
      "type": "function"
    },
    {
      "inputs": [
        {
          "internalType": "address",
          "name": "from",
          "type": "address"
        },
        {
          "internalType": "address",
          "name": "to",
          "type": "address"
        },
        {
          "internalType": "uint256",
          "name": "tokenId",
          "type": "uint256"
        },
        {
          "internalType": "bytes",
          "name": "data",
          "type": "bytes"
        }
      ],
      "name": "safeTransferFrom",
      "outputs": [],
      "stateMutability": "nonpayable",
      "type": "function"
    },
    {
      "inputs": [
        {
          "internalType": "address",
          "name": "operator",
          "type": "address"
        },
        {
          "internalType": "bool",
          "name": "approved",
          "type": "bool"
        }
      ],
      "name": "setApprovalForAll",
      "outputs": [],
      "stateMutability": "nonpayable",
      "type": "function"
    },
    {
      "inputs": [
        {
          "internalType": "bytes4",
          "name": "interfaceId",
          "type": "bytes4"
        }
      ],
      "name": "supportsInterface",
      "outputs": [
        {
          "internalType": "bool",
          "name": "",
          "type": "bool"
        }
      ],
      "stateMutability": "view",
      "type": "function"
    },
    {
      "inputs": [],
      "name": "symbol",
      "outputs": [
        {
          "internalType": "string",
          "name": "",
          "type": "string"
        }
      ],
      "stateMutability": "view",
      "type": "function"
    },
    {
      "inputs": [
        {
          "internalType": "uint256",
          "name": "tokenId",
          "type": "uint256"
        }
      ],
      "name": "tokenURI",
      "outputs": [
        {
          "internalType": "string",
          "name": "",
          "type": "string"
        }
      ],
      "stateMutability": "view",
      "type": "function"
    },
    {
      "inputs": [
        {
          "internalType": "address",
          "name": "from",
          "type": "address"
        },
        {
          "internalType": "address",
          "name": "to",
          "type": "address"
        },
        {
          "internalType": "uint256",
          "name": "tokenId",
          "type": "uint256"
        }
      ],
      "name": "transferFrom",
      "outputs": [],
      "stateMutability": "nonpayable",
      "type": "function"
    },
    {
      "inputs": [
        {
          "internalType": "address",
          "name": "newOwner",
          "type": "address"
        }
      ],
      "name": "transferOwnership",
      "outputs": [],
      "stateMutability": "nonpayable",
      "type": "function"
    }
  ],
  "bytecode": "0x60806040523480156200001157600080fd5b506040518060400160405280600d81526020017f517565656e4f66426f6b4e4654000000000000000000000000000000000000008152506040518060400160405280600381526020017f514f420000000000000000000000000000000000000000000000000000000000815250816000908051906020019062000096929190620001a6565b508060019080519060200190620000af929190620001a6565b505050620000d2620000c6620000d860201b60201c565b620000e060201b60201c565b620002bb565b600033905090565b6000600760009054906101000a900473ffffffffffffffffffffffffffffffffffffffff16905081600760006101000a81548173ffffffffffffffffffffffffffffffffffffffff021916908373ffffffffffffffffffffffffffffffffffffffff1602179055508173ffffffffffffffffffffffffffffffffffffffff168173ffffffffffffffffffffffffffffffffffffffff167f8be0079c531659141344cd1fd0a4f28419497f9722a3daafe3b4186f6b6457e060405160405180910390a35050565b828054620001b49062000285565b90600052602060002090601f016020900481019282620001d8576000855562000224565b82601f10620001f357805160ff191683800117855562000224565b8280016001018555821562000224579182015b828111156200022357825182559160200191906001019062000206565b5b50905062000233919062000237565b5090565b5b808211156200025257600081600090555060010162000238565b5090565b7f4e487b7100000000000000000000000000000000000000000000000000000000600052602260045260246000fd5b600060028204905060018216806200029e57607f821691505b60208210811415620002b557620002b462000256565b5b50919050565b612c3080620002cb6000396000f3fe608060405234801561001057600080fd5b506004361061010b5760003560e01c806370a08231116100a2578063a22cb46511610071578063a22cb46514610292578063b88d4fde146102ae578063c87b56dd146102ca578063e985e9c5146102fa578063f2fde38b1461032a5761010b565b806370a082311461021c578063715018a61461024c5780638da5cb5b1461025657806395d89b41146102745761010b565b806314f710fe116100de57806314f710fe146101aa57806323b872dd146101b457806342842e0e146101d05780636352211e146101ec5761010b565b806301ffc9a71461011057806306fdde0314610140578063081812fc1461015e578063095ea7b31461018e575b600080fd5b61012a60048036038101906101259190611b7e565b610346565b6040516101379190611bc6565b60405180910390f35b610148610428565b6040516101559190611c7a565b60405180910390f35b61017860048036038101906101739190611cd2565b6104ba565b6040516101859190611d40565b60405180910390f35b6101a860048036038101906101a39190611d87565b610500565b005b6101b2610618565b005b6101ce60048036038101906101c99190611dc7565b610698565b005b6101ea60048036038101906101e59190611dc7565b6106f8565b005b61020660048036038101906102019190611cd2565b610718565b6040516102139190611d40565b60405180910390f35b61023660048036038101906102319190611e1a565b6107ca565b6040516102439190611e56565b60405180910390f35b610254610882565b005b61025e610896565b60405161026b9190611d40565b60405180910390f35b61027c6108c0565b6040516102899190611c7a565b60405180910390f35b6102ac60048036038101906102a79190611e9d565b610952565b005b6102c860048036038101906102c39190612012565b610968565b005b6102e460048036038101906102df9190611cd2565b6109ca565b6040516102f19190611c7a565b60405180910390f35b610314600480360381019061030f9190612095565b610add565b6040516103219190611bc6565b60405180910390f35b610344600480360381019061033f9190611e1a565b610b71565b005b60007f80ac58cd000000000000000000000000000000000000000000000000000000007bffffffffffffffffffffffffffffffffffffffffffffffffffffffff1916827bffffffffffffffffffffffffffffffffffffffffffffffffffffffff1916148061041157507f5b5e139f000000000000000000000000000000000000000000000000000000007bffffffffffffffffffffffffffffffffffffffffffffffffffffffff1916827bffffffffffffffffffffffffffffffffffffffffffffffffffffffff1916145b80610421575061042082610bf5565b5b9050919050565b60606000805461043790612104565b80601f016020809104026020016040519081016040528092919081815260200182805461046390612104565b80156104b05780601f10610485576101008083540402835291602001916104b0565b820191906000526020600020905b81548152906001019060200180831161049357829003601f168201915b5050505050905090565b60006104c582610c5f565b6004600083815260200190815260200160002060009054906101000a900473ffffffffffffffffffffffffffffffffffffffff169050919050565b600061050b82610718565b90508073ffffffffffffffffffffffffffffffffffffffff168373ffffffffffffffffffffffffffffffffffffffff16141561057c576040517f08c379a0000000000000000000000000000000000000000000000000000000008152600401610573906121a8565b60405180910390fd5b8073ffffffffffffffffffffffffffffffffffffffff1661059b610caa565b73ffffffffffffffffffffffffffffffffffffffff1614806105ca57506105c9816105c4610caa565b610add565b5b610609576040517f08c379a00000000000000000000000000000000000000000000000000000000081526004016106009061223a565b60405180910390fd5b6106138383610cb2565b505050565b60006106246008610d6b565b90506106303382610d79565b61065281604051806080016040528060588152602001612ba360589139610d97565b61065c6008610e0b565b7f1c05098ed1ff38e6238d2b1b04b2c7977d4c94ce651bda6473f9dba8dbf01da0338260405161068d92919061225a565b60405180910390a150565b6106a96106a3610caa565b82610e21565b6106e8576040517f08c379a00000000000000000000000000000000000000000000000000000000081526004016106df906122f5565b60405180910390fd5b6106f3838383610eb6565b505050565b61071383838360405180602001604052806000815250610968565b505050565b6000806002600084815260200190815260200160002060009054906101000a900473ffffffffffffffffffffffffffffffffffffffff169050600073ffffffffffffffffffffffffffffffffffffffff168173ffffffffffffffffffffffffffffffffffffffff1614156107c1576040517f08c379a00000000000000000000000000000000000000000000000000000000081526004016107b890612361565b60405180910390fd5b80915050919050565b60008073ffffffffffffffffffffffffffffffffffffffff168273ffffffffffffffffffffffffffffffffffffffff16141561083b576040517f08c379a0000000000000000000000000000000000000000000000000000000008152600401610832906123f3565b60405180910390fd5b600360008373ffffffffffffffffffffffffffffffffffffffff1673ffffffffffffffffffffffffffffffffffffffff168152602001908152602001600020549050919050565b61088a61111d565b610894600061119b565b565b6000600760009054906101000a900473ffffffffffffffffffffffffffffffffffffffff16905090565b6060600180546108cf90612104565b80601f01602080910402602001604051908101604052809291908181526020018280546108fb90612104565b80156109485780601f1061091d57610100808354040283529160200191610948565b820191906000526020600020905b81548152906001019060200180831161092b57829003601f168201915b5050505050905090565b61096461095d610caa565b8383611261565b5050565b610979610973610caa565b83610e21565b6109b8576040517f08c379a00000000000000000000000000000000000000000000000000000000081526004016109af906122f5565b60405180910390fd5b6109c4848484846113ce565b50505050565b60606109d582610c5f565b60006006600084815260200190815260200160002080546109f590612104565b80601f0160208091040260200160405190810160405280929190818152602001828054610a2190612104565b8015610a6e5780601f10610a4357610100808354040283529160200191610a6e565b820191906000526020600020905b815481529060010190602001808311610a5157829003601f168201915b505050505090506000610a7f61142a565b9050600081511415610a95578192505050610ad8565b600082511115610aca578082604051602001610ab292919061244f565b60405160208183030381529060405292505050610ad8565b610ad384611441565b925050505b919050565b6000600560008473ffffffffffffffffffffffffffffffffffffffff1673ffffffffffffffffffffffffffffffffffffffff16815260200190815260200160002060008373ffffffffffffffffffffffffffffffffffffffff1673ffffffffffffffffffffffffffffffffffffffff16815260200190815260200160002060009054906101000a900460ff16905092915050565b610b7961111d565b600073ffffffffffffffffffffffffffffffffffffffff168173ffffffffffffffffffffffffffffffffffffffff161415610be9576040517f08c379a0000000000000000000000000000000000000000000000000000000008152600401610be0906124e5565b60405180910390fd5b610bf28161119b565b50565b60007f01ffc9a7000000000000000000000000000000000000000000000000000000007bffffffffffffffffffffffffffffffffffffffffffffffffffffffff1916827bffffffffffffffffffffffffffffffffffffffffffffffffffffffff1916149050919050565b610c68816114a9565b610ca7576040517f08c379a0000000000000000000000000000000000000000000000000000000008152600401610c9e90612361565b60405180910390fd5b50565b600033905090565b816004600083815260200190815260200160002060006101000a81548173ffffffffffffffffffffffffffffffffffffffff021916908373ffffffffffffffffffffffffffffffffffffffff160217905550808273ffffffffffffffffffffffffffffffffffffffff16610d2583610718565b73ffffffffffffffffffffffffffffffffffffffff167f8c5be1e5ebec7d5bd14f71427d1e84f3dd0314c0f7b2291e5b200ac8c7c3b92560405160405180910390a45050565b600081600001549050919050565b610d93828260405180602001604052806000815250611515565b5050565b610da0826114a9565b610ddf576040517f08c379a0000000000000000000000000000000000000000000000000000000008152600401610dd690612577565b60405180910390fd5b80600660008481526020019081526020016000209080519060200190610e06929190611a6f565b505050565b6001816000016000828254019250508190555050565b600080610e2d83610718565b90508073ffffffffffffffffffffffffffffffffffffffff168473ffffffffffffffffffffffffffffffffffffffff161480610e6f5750610e6e8185610add565b5b80610ead57508373ffffffffffffffffffffffffffffffffffffffff16610e95846104ba565b73ffffffffffffffffffffffffffffffffffffffff16145b91505092915050565b8273ffffffffffffffffffffffffffffffffffffffff16610ed682610718565b73ffffffffffffffffffffffffffffffffffffffff1614610f2c576040517f08c379a0000000000000000000000000000000000000000000000000000000008152600401610f2390612609565b60405180910390fd5b600073ffffffffffffffffffffffffffffffffffffffff168273ffffffffffffffffffffffffffffffffffffffff161415610f9c576040517f08c379a0000000000000000000000000000000000000000000000000000000008152600401610f939061269b565b60405180910390fd5b610fa7838383611570565b610fb2600082610cb2565b6001600360008573ffffffffffffffffffffffffffffffffffffffff1673ffffffffffffffffffffffffffffffffffffffff168152602001908152602001600020600082825461100291906126ea565b925050819055506001600360008473ffffffffffffffffffffffffffffffffffffffff1673ffffffffffffffffffffffffffffffffffffffff1681526020019081526020016000206000828254611059919061271e565b92505081905550816002600083815260200190815260200160002060006101000a81548173ffffffffffffffffffffffffffffffffffffffff021916908373ffffffffffffffffffffffffffffffffffffffff160217905550808273ffffffffffffffffffffffffffffffffffffffff168473ffffffffffffffffffffffffffffffffffffffff167fddf252ad1be2c89b69c2b068fc378daa952ba7f163c4a11628f55a4df523b3ef60405160405180910390a4611118838383611575565b505050565b611125610caa565b73ffffffffffffffffffffffffffffffffffffffff16611143610896565b73ffffffffffffffffffffffffffffffffffffffff1614611199576040517f08c379a0000000000000000000000000000000000000000000000000000000008152600401611190906127c0565b60405180910390fd5b565b6000600760009054906101000a900473ffffffffffffffffffffffffffffffffffffffff16905081600760006101000a81548173ffffffffffffffffffffffffffffffffffffffff021916908373ffffffffffffffffffffffffffffffffffffffff1602179055508173ffffffffffffffffffffffffffffffffffffffff168173ffffffffffffffffffffffffffffffffffffffff167f8be0079c531659141344cd1fd0a4f28419497f9722a3daafe3b4186f6b6457e060405160405180910390a35050565b8173ffffffffffffffffffffffffffffffffffffffff168373ffffffffffffffffffffffffffffffffffffffff1614156112d0576040517f08c379a00000000000000000000000000000000000000000000000000000000081526004016112c79061282c565b60405180910390fd5b80600560008573ffffffffffffffffffffffffffffffffffffffff1673ffffffffffffffffffffffffffffffffffffffff16815260200190815260200160002060008473ffffffffffffffffffffffffffffffffffffffff1673ffffffffffffffffffffffffffffffffffffffff16815260200190815260200160002060006101000a81548160ff0219169083151502179055508173ffffffffffffffffffffffffffffffffffffffff168373ffffffffffffffffffffffffffffffffffffffff167f17307eab39ab6107e8899845ad3d59bd9653f200f220920489ca2b5937696c31836040516113c19190611bc6565b60405180910390a3505050565b6113d9848484610eb6565b6113e58484848461157a565b611424576040517f08c379a000000000000000000000000000000000000000000000000000000000815260040161141b906128be565b60405180910390fd5b50505050565b606060405180602001604052806000815250905090565b606061144c82610c5f565b600061145661142a565b9050600081511161147657604051806020016040528060008152506114a1565b8061148084611711565b60405160200161149192919061244f565b6040516020818303038152906040525b915050919050565b60008073ffffffffffffffffffffffffffffffffffffffff166002600084815260200190815260200160002060009054906101000a900473ffffffffffffffffffffffffffffffffffffffff1673ffffffffffffffffffffffffffffffffffffffff1614159050919050565b61151f8383611872565b61152c600084848461157a565b61156b576040517f08c379a0000000000000000000000000000000000000000000000000000000008152600401611562906128be565b60405180910390fd5b505050565b505050565b505050565b600061159b8473ffffffffffffffffffffffffffffffffffffffff16611a4c565b15611704578373ffffffffffffffffffffffffffffffffffffffff1663150b7a026115c4610caa565b8786866040518563ffffffff1660e01b81526004016115e69493929190612933565b602060405180830381600087803b15801561160057600080fd5b505af192505050801561163157506040513d601f19601f8201168201806040525081019061162e9190612994565b60015b6116b4573d8060008114611661576040519150601f19603f3d011682016040523d82523d6000602084013e611666565b606091505b506000815114156116ac576040517f08c379a00000000000000000000000000000000000000000000000000000000081526004016116a3906128be565b60405180910390fd5b805181602001fd5b63150b7a0260e01b7bffffffffffffffffffffffffffffffffffffffffffffffffffffffff1916817bffffffffffffffffffffffffffffffffffffffffffffffffffffffff191614915050611709565b600190505b949350505050565b60606000821415611759576040518060400160405280600181526020017f3000000000000000000000000000000000000000000000000000000000000000815250905061186d565b600082905060005b6000821461178b578080611774906129c1565b915050600a826117849190612a39565b9150611761565b60008167ffffffffffffffff8111156117a7576117a6611ee7565b5b6040519080825280601f01601f1916602001820160405280156117d95781602001600182028036833780820191505090505b5090505b60008514611866576001826117f291906126ea565b9150600a856118019190612a6a565b603061180d919061271e565b60f81b81838151811061182357611822612a9b565b5b60200101907effffffffffffffffffffffffffffffffffffffffffffffffffffffffffffff1916908160001a905350600a8561185f9190612a39565b94506117dd565b8093505050505b919050565b600073ffffffffffffffffffffffffffffffffffffffff168273ffffffffffffffffffffffffffffffffffffffff1614156118e2576040517f08c379a00000000000000000000000000000000000000000000000000000000081526004016118d990612b16565b60405180910390fd5b6118eb816114a9565b1561192b576040517f08c379a000000000000000000000000000000000000000000000000000000000815260040161192290612b82565b60405180910390fd5b61193760008383611570565b6001600360008473ffffffffffffffffffffffffffffffffffffffff1673ffffffffffffffffffffffffffffffffffffffff1681526020019081526020016000206000828254611987919061271e565b92505081905550816002600083815260200190815260200160002060006101000a81548173ffffffffffffffffffffffffffffffffffffffff021916908373ffffffffffffffffffffffffffffffffffffffff160217905550808273ffffffffffffffffffffffffffffffffffffffff16600073ffffffffffffffffffffffffffffffffffffffff167fddf252ad1be2c89b69c2b068fc378daa952ba7f163c4a11628f55a4df523b3ef60405160405180910390a4611a4860008383611575565b5050565b6000808273ffffffffffffffffffffffffffffffffffffffff163b119050919050565b828054611a7b90612104565b90600052602060002090601f016020900481019282611a9d5760008555611ae4565b82601f10611ab657805160ff1916838001178555611ae4565b82800160010185558215611ae4579182015b82811115611ae3578251825591602001919060010190611ac8565b5b509050611af19190611af5565b5090565b5b80821115611b0e576000816000905550600101611af6565b5090565b6000604051905090565b600080fd5b600080fd5b60007fffffffff0000000000000000000000000000000000000000000000000000000082169050919050565b611b5b81611b26565b8114611b6657600080fd5b50565b600081359050611b7881611b52565b92915050565b600060208284031215611b9457611b93611b1c565b5b6000611ba284828501611b69565b91505092915050565b60008115159050919050565b611bc081611bab565b82525050565b6000602082019050611bdb6000830184611bb7565b92915050565b600081519050919050565b600082825260208201905092915050565b60005b83811015611c1b578082015181840152602081019050611c00565b83811115611c2a576000848401525b50505050565b6000601f19601f8301169050919050565b6000611c4c82611be1565b611c568185611bec565b9350611c66818560208601611bfd565b611c6f81611c30565b840191505092915050565b60006020820190508181036000830152611c948184611c41565b905092915050565b6000819050919050565b611caf81611c9c565b8114611cba57600080fd5b50565b600081359050611ccc81611ca6565b92915050565b600060208284031215611ce857611ce7611b1c565b5b6000611cf684828501611cbd565b91505092915050565b600073ffffffffffffffffffffffffffffffffffffffff82169050919050565b6000611d2a82611cff565b9050919050565b611d3a81611d1f565b82525050565b6000602082019050611d556000830184611d31565b92915050565b611d6481611d1f565b8114611d6f57600080fd5b50565b600081359050611d8181611d5b565b92915050565b60008060408385031215611d9e57611d9d611b1c565b5b6000611dac85828601611d72565b9250506020611dbd85828601611cbd565b9150509250929050565b600080600060608486031215611de057611ddf611b1c565b5b6000611dee86828701611d72565b9350506020611dff86828701611d72565b9250506040611e1086828701611cbd565b9150509250925092565b600060208284031215611e3057611e2f611b1c565b5b6000611e3e84828501611d72565b91505092915050565b611e5081611c9c565b82525050565b6000602082019050611e6b6000830184611e47565b92915050565b611e7a81611bab565b8114611e8557600080fd5b50565b600081359050611e9781611e71565b92915050565b60008060408385031215611eb457611eb3611b1c565b5b6000611ec285828601611d72565b9250506020611ed385828601611e88565b9150509250929050565b600080fd5b600080fd5b7f4e487b7100000000000000000000000000000000000000000000000000000000600052604160045260246000fd5b611f1f82611c30565b810181811067ffffffffffffffff82111715611f3e57611f3d611ee7565b5b80604052505050565b6000611f51611b12565b9050611f5d8282611f16565b919050565b600067ffffffffffffffff821115611f7d57611f7c611ee7565b5b611f8682611c30565b9050602081019050919050565b82818337600083830152505050565b6000611fb5611fb084611f62565b611f47565b905082815260208101848484011115611fd157611fd0611ee2565b5b611fdc848285611f93565b509392505050565b600082601f830112611ff957611ff8611edd565b5b8135612009848260208601611fa2565b91505092915050565b6000806000806080858703121561202c5761202b611b1c565b5b600061203a87828801611d72565b945050602061204b87828801611d72565b935050604061205c87828801611cbd565b925050606085013567ffffffffffffffff81111561207d5761207c611b21565b5b61208987828801611fe4565b91505092959194509250565b600080604083850312156120ac576120ab611b1c565b5b60006120ba85828601611d72565b92505060206120cb85828601611d72565b9150509250929050565b7f4e487b7100000000000000000000000000000000000000000000000000000000600052602260045260246000fd5b6000600282049050600182168061211c57607f821691505b602082108114156121305761212f6120d5565b5b50919050565b7f4552433732313a20617070726f76616c20746f2063757272656e74206f776e6560008201527f7200000000000000000000000000000000000000000000000000000000000000602082015250565b6000612192602183611bec565b915061219d82612136565b604082019050919050565b600060208201905081810360008301526121c181612185565b9050919050565b7f4552433732313a20617070726f76652063616c6c6572206973206e6f7420746f60008201527f6b656e206f776e6572206e6f7220617070726f76656420666f7220616c6c0000602082015250565b6000612224603e83611bec565b915061222f826121c8565b604082019050919050565b6000602082019050818103600083015261225381612217565b9050919050565b600060408201905061226f6000830185611d31565b61227c6020830184611e47565b9392505050565b7f4552433732313a2063616c6c6572206973206e6f7420746f6b656e206f776e6560008201527f72206e6f7220617070726f766564000000000000000000000000000000000000602082015250565b60006122df602e83611bec565b91506122ea82612283565b604082019050919050565b6000602082019050818103600083015261230e816122d2565b9050919050565b7f4552433732313a20696e76616c696420746f6b656e2049440000000000000000600082015250565b600061234b601883611bec565b915061235682612315565b602082019050919050565b6000602082019050818103600083015261237a8161233e565b9050919050565b7f4552433732313a2061646472657373207a65726f206973206e6f74206120766160008201527f6c6964206f776e65720000000000000000000000000000000000000000000000602082015250565b60006123dd602983611bec565b91506123e882612381565b604082019050919050565b6000602082019050818103600083015261240c816123d0565b9050919050565b600081905092915050565b600061242982611be1565b6124338185612413565b9350612443818560208601611bfd565b80840191505092915050565b600061245b828561241e565b9150612467828461241e565b91508190509392505050565b7f4f776e61626c653a206e6577206f776e657220697320746865207a65726f206160008201527f6464726573730000000000000000000000000000000000000000000000000000602082015250565b60006124cf602683611bec565b91506124da82612473565b604082019050919050565b600060208201905081810360008301526124fe816124c2565b9050919050565b7f45524337323155524953746f726167653a2055524920736574206f66206e6f6e60008201527f6578697374656e7420746f6b656e000000000000000000000000000000000000602082015250565b6000612561602e83611bec565b915061256c82612505565b604082019050919050565b6000602082019050818103600083015261259081612554565b9050919050565b7f4552433732313a207472616e736665722066726f6d20696e636f72726563742060008201527f6f776e6572000000000000000000000000000000000000000000000000000000602082015250565b60006125f3602583611bec565b91506125fe82612597565b604082019050919050565b60006020820190508181036000830152612622816125e6565b9050919050565b7f4552433732313a207472616e7366657220746f20746865207a65726f2061646460008201527f7265737300000000000000000000000000000000000000000000000000000000602082015250565b6000612685602483611bec565b915061269082612629565b604082019050919050565b600060208201905081810360008301526126b481612678565b9050919050565b7f4e487b7100000000000000000000000000000000000000000000000000000000600052601160045260246000fd5b60006126f582611c9c565b915061270083611c9c565b925082821015612713576127126126bb565b5b828203905092915050565b600061272982611c9c565b915061273483611c9c565b9250827fffffffffffffffffffffffffffffffffffffffffffffffffffffffffffffffff03821115612769576127686126bb565b5b828201905092915050565b7f4f776e61626c653a2063616c6c6572206973206e6f7420746865206f776e6572600082015250565b60006127aa602083611bec565b91506127b582612774565b602082019050919050565b600060208201905081810360008301526127d98161279d565b9050919050565b7f4552433732313a20617070726f766520746f2063616c6c657200000000000000600082015250565b6000612816601983611bec565b9150612821826127e0565b602082019050919050565b6000602082019050818103600083015261284581612809565b9050919050565b7f4552433732313a207472616e7366657220746f206e6f6e20455243373231526560008201527f63656976657220696d706c656d656e7465720000000000000000000000000000602082015250565b60006128a8603283611bec565b91506128b38261284c565b604082019050919050565b600060208201905081810360008301526128d78161289b565b9050919050565b600081519050919050565b600082825260208201905092915050565b6000612905826128de565b61290f81856128e9565b935061291f818560208601611bfd565b61292881611c30565b840191505092915050565b60006080820190506129486000830187611d31565b6129556020830186611d31565b6129626040830185611e47565b818103606083015261297481846128fa565b905095945050505050565b60008151905061298e81611b52565b92915050565b6000602082840312156129aa576129a9611b1c565b5b60006129b88482850161297f565b91505092915050565b60006129cc82611c9c565b91507fffffffffffffffffffffffffffffffffffffffffffffffffffffffffffffffff8214156129ff576129fe6126bb565b5b600182019050919050565b7f4e487b7100000000000000000000000000000000000000000000000000000000600052601260045260246000fd5b6000612a4482611c9c565b9150612a4f83611c9c565b925082612a5f57612a5e612a0a565b5b828204905092915050565b6000612a7582611c9c565b9150612a8083611c9c565b925082612a9057612a8f612a0a565b5b828206905092915050565b7f4e487b7100000000000000000000000000000000000000000000000000000000600052603260045260246000fd5b7f4552433732313a206d696e7420746f20746865207a65726f2061646472657373600082015250565b6000612b00602083611bec565b9150612b0b82612aca565b602082019050919050565b60006020820190508181036000830152612b2f81612af3565b9050919050565b7f4552433732313a20746f6b656e20616c7265616479206d696e74656400000000600082015250565b6000612b6c601c83611bec565b9150612b7782612b36565b602082019050919050565b60006020820190508181036000830152612b9b81612b5f565b905091905056fe68747470733a2f2f7265732e636c6f7564696e6172792e636f6d2f7765743933322f7261772f75706c6f61642f76313635393337323837382f517565656e4f66426f6b2f526f756e64312f6d657461646174612e6a736f6ea2646970667358221220d12887f38fe313cd1b9458a66ba2f530954664fa58d198198d8ed6b3541083d864736f6c63430008090033",
  "linkReferences": {},
  "deployedLinkReferences": {}
}