{
  "_format": "hh-sol-artifact-1",
  "contractName": "QueenOfBokNFT",
  "sourceName": "contracts/QueenOfBokNFT.sol",
  "abi": [
    {
      "inputs": [],
      "stateMutability": "nonpayable",
      "type": "constructor"
    },
    {
      "anonymous": false,
      "inputs": [
        {
          "indexed": true,
          "internalType": "address",
          "name": "owner",
          "type": "address"
        },
        {
          "indexed": true,
          "internalType": "address",
          "name": "approved",
          "type": "address"
        },
        {
          "indexed": true,
          "internalType": "uint256",
          "name": "tokenId",
          "type": "uint256"
        }
      ],
      "name": "Approval",
      "type": "event"
    },
    {
      "anonymous": false,
      "inputs": [
        {
          "indexed": true,
          "internalType": "address",
          "name": "owner",
          "type": "address"
        },
        {
          "indexed": true,
          "internalType": "address",
          "name": "operator",
          "type": "address"
        },
        {
          "indexed": false,
          "internalType": "bool",
          "name": "approved",
          "type": "bool"
        }
      ],
      "name": "ApprovalForAll",
      "type": "event"
    },
    {
      "anonymous": false,
      "inputs": [
        {
          "indexed": false,
          "internalType": "address",
          "name": "sender",
          "type": "address"
        },
        {
          "indexed": false,
          "internalType": "uint256",
          "name": "tokenId",
          "type": "uint256"
        }
      ],
      "name": "NewNFTMinted",
      "type": "event"
    },
    {
      "anonymous": false,
      "inputs": [
        {
          "indexed": true,
          "internalType": "address",
          "name": "from",
          "type": "address"
        },
        {
          "indexed": true,
          "internalType": "address",
          "name": "to",
          "type": "address"
        },
        {
          "indexed": true,
          "internalType": "uint256",
          "name": "tokenId",
          "type": "uint256"
        }
      ],
      "name": "Transfer",
      "type": "event"
    },
    {
      "inputs": [
        {
          "internalType": "address",
          "name": "to",
          "type": "address"
        },
        {
          "internalType": "uint256",
          "name": "tokenId",
          "type": "uint256"
        }
      ],
      "name": "approve",
      "outputs": [],
      "stateMutability": "nonpayable",
      "type": "function"
    },
    {
      "inputs": [
        {
          "internalType": "address",
          "name": "owner",
          "type": "address"
        }
      ],
      "name": "balanceOf",
      "outputs": [
        {
          "internalType": "uint256",
          "name": "",
          "type": "uint256"
        }
      ],
      "stateMutability": "view",
      "type": "function"
    },
    {
      "inputs": [
        {
          "internalType": "uint256",
          "name": "tokenId",
          "type": "uint256"
        }
      ],
      "name": "getApproved",
      "outputs": [
        {
          "internalType": "address",
          "name": "",
          "type": "address"
        }
      ],
      "stateMutability": "view",
      "type": "function"
    },
    {
      "inputs": [
        {
          "internalType": "address",
          "name": "owner",
          "type": "address"
        },
        {
          "internalType": "address",
          "name": "operator",
          "type": "address"
        }
      ],
      "name": "isApprovedForAll",
      "outputs": [
        {
          "internalType": "bool",
          "name": "",
          "type": "bool"
        }
      ],
      "stateMutability": "view",
      "type": "function"
    },
    {
      "inputs": [],
      "name": "maxSupply",
      "outputs": [
        {
          "internalType": "uint256",
          "name": "",
          "type": "uint256"
        }
      ],
      "stateMutability": "view",
      "type": "function"
    },
    {
      "inputs": [],
      "name": "mintNFT",
      "outputs": [],
      "stateMutability": "payable",
      "type": "function"
    },
    {
      "inputs": [],
      "name": "mintPrice",
      "outputs": [
        {
          "internalType": "uint256",
          "name": "",
          "type": "uint256"
        }
      ],
      "stateMutability": "view",
      "type": "function"
    },
    {
      "inputs": [],
      "name": "name",
      "outputs": [
        {
          "internalType": "string",
          "name": "",
          "type": "string"
        }
      ],
      "stateMutability": "view",
      "type": "function"
    },
    {
      "inputs": [
        {
          "internalType": "uint256",
          "name": "tokenId",
          "type": "uint256"
        }
      ],
      "name": "ownerOf",
      "outputs": [
        {
          "internalType": "address",
          "name": "",
          "type": "address"
        }
      ],
      "stateMutability": "view",
      "type": "function"
    },
    {
      "inputs": [
        {
          "internalType": "address",
          "name": "from",
          "type": "address"
        },
        {
          "internalType": "address",
          "name": "to",
          "type": "address"
        },
        {
          "internalType": "uint256",
          "name": "tokenId",
          "type": "uint256"
        }
      ],
      "name": "safeTransferFrom",
      "outputs": [],
      "stateMutability": "nonpayable",
      "type": "function"
    },
    {
      "inputs": [
        {
          "internalType": "address",
          "name": "from",
          "type": "address"
        },
        {
          "internalType": "address",
          "name": "to",
          "type": "address"
        },
        {
          "internalType": "uint256",
          "name": "tokenId",
          "type": "uint256"
        },
        {
          "internalType": "bytes",
          "name": "data",
          "type": "bytes"
        }
      ],
      "name": "safeTransferFrom",
      "outputs": [],
      "stateMutability": "nonpayable",
      "type": "function"
    },
    {
      "inputs": [
        {
          "internalType": "address",
          "name": "operator",
          "type": "address"
        },
        {
          "internalType": "bool",
          "name": "approved",
          "type": "bool"
        }
      ],
      "name": "setApprovalForAll",
      "outputs": [],
      "stateMutability": "nonpayable",
      "type": "function"
    },
    {
      "inputs": [
        {
          "internalType": "bytes4",
          "name": "interfaceId",
          "type": "bytes4"
        }
      ],
      "name": "supportsInterface",
      "outputs": [
        {
          "internalType": "bool",
          "name": "",
          "type": "bool"
        }
      ],
      "stateMutability": "view",
      "type": "function"
    },
    {
      "inputs": [],
      "name": "symbol",
      "outputs": [
        {
          "internalType": "string",
          "name": "",
          "type": "string"
        }
      ],
      "stateMutability": "view",
      "type": "function"
    },
    {
      "inputs": [
        {
          "internalType": "uint256",
          "name": "tokenId",
          "type": "uint256"
        }
      ],
      "name": "tokenURI",
      "outputs": [
        {
          "internalType": "string",
          "name": "",
          "type": "string"
        }
      ],
      "stateMutability": "view",
      "type": "function"
    },
    {
      "inputs": [
        {
          "internalType": "address",
          "name": "from",
          "type": "address"
        },
        {
          "internalType": "address",
          "name": "to",
          "type": "address"
        },
        {
          "internalType": "uint256",
          "name": "tokenId",
          "type": "uint256"
        }
      ],
      "name": "transferFrom",
      "outputs": [],
      "stateMutability": "nonpayable",
      "type": "function"
    }
  ],
  "bytecode": "0x60806040523480156200001157600080fd5b506040518060400160405280600d81526020017f517565656e4f66426f6b4e4654000000000000000000000000000000000000008152506040518060400160405280600381526020017f514f420000000000000000000000000000000000000000000000000000000000815250816000908051906020019062000096929190620000b8565b508060019080519060200190620000af929190620000b8565b505050620001cd565b828054620000c69062000197565b90600052602060002090601f016020900481019282620000ea576000855562000136565b82601f106200010557805160ff191683800117855562000136565b8280016001018555821562000136579182015b828111156200013557825182559160200191906001019062000118565b5b50905062000145919062000149565b5090565b5b80821115620001645760008160009055506001016200014a565b5090565b7f4e487b7100000000000000000000000000000000000000000000000000000000600052602260045260246000fd5b60006002820490506001821680620001b057607f821691505b60208210811415620001c757620001c662000168565b5b50919050565b612c2580620001dd6000396000f3fe6080604052600436106100f35760003560e01c80636817c76c1161008a578063b88d4fde11610059578063b88d4fde1461031b578063c87b56dd14610344578063d5abeb0114610381578063e985e9c5146103ac576100f3565b80636817c76c1461025f57806370a082311461028a57806395d89b41146102c7578063a22cb465146102f2576100f3565b806314f710fe116100c657806314f710fe146101c657806323b872dd146101d057806342842e0e146101f95780636352211e14610222576100f3565b806301ffc9a7146100f857806306fdde0314610135578063081812fc14610160578063095ea7b31461019d575b600080fd5b34801561010457600080fd5b5061011f600480360381019061011a9190611b6b565b6103e9565b60405161012c9190611bb3565b60405180910390f35b34801561014157600080fd5b5061014a6104cb565b6040516101579190611c67565b60405180910390f35b34801561016c57600080fd5b5061018760048036038101906101829190611cbf565b61055d565b6040516101949190611d2d565b60405180910390f35b3480156101a957600080fd5b506101c460048036038101906101bf9190611d74565b6105a3565b005b6101ce6106bb565b005b3480156101dc57600080fd5b506101f760048036038101906101f29190611db4565b6107df565b005b34801561020557600080fd5b50610220600480360381019061021b9190611db4565b61083f565b005b34801561022e57600080fd5b5061024960048036038101906102449190611cbf565b61085f565b6040516102569190611d2d565b60405180910390f35b34801561026b57600080fd5b50610274610911565b6040516102819190611e16565b60405180910390f35b34801561029657600080fd5b506102b160048036038101906102ac9190611e31565b61091d565b6040516102be9190611e16565b60405180910390f35b3480156102d357600080fd5b506102dc6109d5565b6040516102e99190611c67565b60405180910390f35b3480156102fe57600080fd5b5061031960048036038101906103149190611e8a565b610a67565b005b34801561032757600080fd5b50610342600480360381019061033d9190611fff565b610a7d565b005b34801561035057600080fd5b5061036b60048036038101906103669190611cbf565b610adf565b6040516103789190611c67565b60405180910390f35b34801561038d57600080fd5b50610396610af1565b6040516103a39190611e16565b60405180910390f35b3480156103b857600080fd5b506103d360048036038101906103ce9190612082565b610af6565b6040516103e09190611bb3565b60405180910390f35b60007f80ac58cd000000000000000000000000000000000000000000000000000000007bffffffffffffffffffffffffffffffffffffffffffffffffffffffff1916827bffffffffffffffffffffffffffffffffffffffffffffffffffffffff191614806104b457507f5b5e139f000000000000000000000000000000000000000000000000000000007bffffffffffffffffffffffffffffffffffffffffffffffffffffffff1916827bffffffffffffffffffffffffffffffffffffffffffffffffffffffff1916145b806104c457506104c382610b8a565b5b9050919050565b6060600080546104da906120f1565b80601f0160208091040260200160405190810160405280929190818152602001828054610506906120f1565b80156105535780601f1061052857610100808354040283529160200191610553565b820191906000526020600020905b81548152906001019060200180831161053657829003601f168201915b5050505050905090565b600061056882610bf4565b6004600083815260200190815260200160002060009054906101000a900473ffffffffffffffffffffffffffffffffffffffff169050919050565b60006105ae8261085f565b90508073ffffffffffffffffffffffffffffffffffffffff168373ffffffffffffffffffffffffffffffffffffffff16141561061f576040517f08c379a000000000000000000000000000000000000000000000000000000000815260040161061690612195565b60405180910390fd5b8073ffffffffffffffffffffffffffffffffffffffff1661063e610c3f565b73ffffffffffffffffffffffffffffffffffffffff16148061066d575061066c81610667610c3f565b610af6565b5b6106ac576040517f08c379a00000000000000000000000000000000000000000000000000000000081526004016106a390612227565b60405180910390fd5b6106b68383610c47565b505050565b60007316d2e836dfd8b362b7791c38238c9256ca9154e09050670de0b6b3a7640000341461071e576040517f08c379a000000000000000000000000000000000000000000000000000000000815260040161071590612293565b60405180910390fd5b60008173ffffffffffffffffffffffffffffffffffffffff1634604051610744906122e4565b60006040518083038185875af1925050503d8060008114610781576040519150601f19603f3d011682016040523d82523d6000602084013e610786565b606091505b50509050806107ca576040517f08c379a00000000000000000000000000000000000000000000000000000000081526004016107c190612345565b60405180910390fd5b6107db336107d6610d00565b610d20565b5050565b6107f06107ea610c3f565b82610da0565b61082f576040517f08c379a0000000000000000000000000000000000000000000000000000000008152600401610826906123d7565b60405180910390fd5b61083a838383610e35565b505050565b61085a83838360405180602001604052806000815250610a7d565b505050565b6000806002600084815260200190815260200160002060009054906101000a900473ffffffffffffffffffffffffffffffffffffffff169050600073ffffffffffffffffffffffffffffffffffffffff168173ffffffffffffffffffffffffffffffffffffffff161415610908576040517f08c379a00000000000000000000000000000000000000000000000000000000081526004016108ff90612443565b60405180910390fd5b80915050919050565b670de0b6b3a764000081565b60008073ffffffffffffffffffffffffffffffffffffffff168273ffffffffffffffffffffffffffffffffffffffff16141561098e576040517f08c379a0000000000000000000000000000000000000000000000000000000008152600401610985906124d5565b60405180910390fd5b600360008373ffffffffffffffffffffffffffffffffffffffff1673ffffffffffffffffffffffffffffffffffffffff168152602001908152602001600020549050919050565b6060600180546109e4906120f1565b80601f0160208091040260200160405190810160405280929190818152602001828054610a10906120f1565b8015610a5d5780601f10610a3257610100808354040283529160200191610a5d565b820191906000526020600020905b815481529060010190602001808311610a4057829003601f168201915b5050505050905090565b610a79610a72610c3f565b838361109c565b5050565b610a8e610a88610c3f565b83610da0565b610acd576040517f08c379a0000000000000000000000000000000000000000000000000000000008152600401610ac4906123d7565b60405180910390fd5b610ad984848484611209565b50505050565b6060610aea82611265565b9050919050565b606581565b6000600560008473ffffffffffffffffffffffffffffffffffffffff1673ffffffffffffffffffffffffffffffffffffffff16815260200190815260200160002060008373ffffffffffffffffffffffffffffffffffffffff1673ffffffffffffffffffffffffffffffffffffffff16815260200190815260200160002060009054906101000a900460ff16905092915050565b60007f01ffc9a7000000000000000000000000000000000000000000000000000000007bffffffffffffffffffffffffffffffffffffffffffffffffffffffff1916827bffffffffffffffffffffffffffffffffffffffffffffffffffffffff1916149050919050565b610bfd81611378565b610c3c576040517f08c379a0000000000000000000000000000000000000000000000000000000008152600401610c3390612443565b60405180910390fd5b50565b600033905090565b816004600083815260200190815260200160002060006101000a81548173ffffffffffffffffffffffffffffffffffffffff021916908373ffffffffffffffffffffffffffffffffffffffff160217905550808273ffffffffffffffffffffffffffffffffffffffff16610cba8361085f565b73ffffffffffffffffffffffffffffffffffffffff167f8c5be1e5ebec7d5bd14f71427d1e84f3dd0314c0f7b2291e5b200ac8c7c3b92560405160405180910390a45050565b6060604051806060016040528060408152602001612bb060409139905090565b6000610d2c60076113e4565b90506065610d3a60076113e4565b10610d4457600080fd5b610d4e60076113f2565b610d588382611408565b610d628183611426565b7f1c05098ed1ff38e6238d2b1b04b2c7977d4c94ce651bda6473f9dba8dbf01da03382604051610d939291906124f5565b60405180910390a1505050565b600080610dac8361085f565b90508073ffffffffffffffffffffffffffffffffffffffff168473ffffffffffffffffffffffffffffffffffffffff161480610dee5750610ded8185610af6565b5b80610e2c57508373ffffffffffffffffffffffffffffffffffffffff16610e148461055d565b73ffffffffffffffffffffffffffffffffffffffff16145b91505092915050565b8273ffffffffffffffffffffffffffffffffffffffff16610e558261085f565b73ffffffffffffffffffffffffffffffffffffffff1614610eab576040517f08c379a0000000000000000000000000000000000000000000000000000000008152600401610ea290612590565b60405180910390fd5b600073ffffffffffffffffffffffffffffffffffffffff168273ffffffffffffffffffffffffffffffffffffffff161415610f1b576040517f08c379a0000000000000000000000000000000000000000000000000000000008152600401610f1290612622565b60405180910390fd5b610f2683838361149a565b610f31600082610c47565b6001600360008573ffffffffffffffffffffffffffffffffffffffff1673ffffffffffffffffffffffffffffffffffffffff1681526020019081526020016000206000828254610f819190612671565b925050819055506001600360008473ffffffffffffffffffffffffffffffffffffffff1673ffffffffffffffffffffffffffffffffffffffff1681526020019081526020016000206000828254610fd891906126a5565b92505081905550816002600083815260200190815260200160002060006101000a81548173ffffffffffffffffffffffffffffffffffffffff021916908373ffffffffffffffffffffffffffffffffffffffff160217905550808273ffffffffffffffffffffffffffffffffffffffff168473ffffffffffffffffffffffffffffffffffffffff167fddf252ad1be2c89b69c2b068fc378daa952ba7f163c4a11628f55a4df523b3ef60405160405180910390a461109783838361149f565b505050565b8173ffffffffffffffffffffffffffffffffffffffff168373ffffffffffffffffffffffffffffffffffffffff16141561110b576040517f08c379a000000000000000000000000000000000000000000000000000000000815260040161110290612747565b60405180910390fd5b80600560008573ffffffffffffffffffffffffffffffffffffffff1673ffffffffffffffffffffffffffffffffffffffff16815260200190815260200160002060008473ffffffffffffffffffffffffffffffffffffffff1673ffffffffffffffffffffffffffffffffffffffff16815260200190815260200160002060006101000a81548160ff0219169083151502179055508173ffffffffffffffffffffffffffffffffffffffff168373ffffffffffffffffffffffffffffffffffffffff167f17307eab39ab6107e8899845ad3d59bd9653f200f220920489ca2b5937696c31836040516111fc9190611bb3565b60405180910390a3505050565b611214848484610e35565b611220848484846114a4565b61125f576040517f08c379a0000000000000000000000000000000000000000000000000000000008152600401611256906127d9565b60405180910390fd5b50505050565b606061127082610bf4565b6000600660008481526020019081526020016000208054611290906120f1565b80601f01602080910402602001604051908101604052809291908181526020018280546112bc906120f1565b80156113095780601f106112de57610100808354040283529160200191611309565b820191906000526020600020905b8154815290600101906020018083116112ec57829003601f168201915b50505050509050600061131a610d00565b9050600081511415611330578192505050611373565b60008251111561136557808260405160200161134d929190612835565b60405160208183030381529060405292505050611373565b61136e8461163b565b925050505b919050565b60008073ffffffffffffffffffffffffffffffffffffffff166002600084815260200190815260200160002060009054906101000a900473ffffffffffffffffffffffffffffffffffffffff1673ffffffffffffffffffffffffffffffffffffffff1614159050919050565b600081600001549050919050565b6001816000016000828254019250508190555050565b6114228282604051806020016040528060008152506116a3565b5050565b61142f82611378565b61146e576040517f08c379a0000000000000000000000000000000000000000000000000000000008152600401611465906128cb565b60405180910390fd5b80600660008481526020019081526020016000209080519060200190611495929190611a5c565b505050565b505050565b505050565b60006114c58473ffffffffffffffffffffffffffffffffffffffff166116fe565b1561162e578373ffffffffffffffffffffffffffffffffffffffff1663150b7a026114ee610c3f565b8786866040518563ffffffff1660e01b81526004016115109493929190612940565b602060405180830381600087803b15801561152a57600080fd5b505af192505050801561155b57506040513d601f19601f8201168201806040525081019061155891906129a1565b60015b6115de573d806000811461158b576040519150601f19603f3d011682016040523d82523d6000602084013e611590565b606091505b506000815114156115d6576040517f08c379a00000000000000000000000000000000000000000000000000000000081526004016115cd906127d9565b60405180910390fd5b805181602001fd5b63150b7a0260e01b7bffffffffffffffffffffffffffffffffffffffffffffffffffffffff1916817bffffffffffffffffffffffffffffffffffffffffffffffffffffffff191614915050611633565b600190505b949350505050565b606061164682610bf4565b6000611650610d00565b90506000815111611670576040518060200160405280600081525061169b565b8061167a84611721565b60405160200161168b929190612835565b6040516020818303038152906040525b915050919050565b6116ad8383611882565b6116ba60008484846114a4565b6116f9576040517f08c379a00000000000000000000000000000000000000000000000000000000081526004016116f0906127d9565b60405180910390fd5b505050565b6000808273ffffffffffffffffffffffffffffffffffffffff163b119050919050565b60606000821415611769576040518060400160405280600181526020017f3000000000000000000000000000000000000000000000000000000000000000815250905061187d565b600082905060005b6000821461179b578080611784906129ce565b915050600a826117949190612a46565b9150611771565b60008167ffffffffffffffff8111156117b7576117b6611ed4565b5b6040519080825280601f01601f1916602001820160405280156117e95781602001600182028036833780820191505090505b5090505b60008514611876576001826118029190612671565b9150600a856118119190612a77565b603061181d91906126a5565b60f81b81838151811061183357611832612aa8565b5b60200101907effffffffffffffffffffffffffffffffffffffffffffffffffffffffffffff1916908160001a905350600a8561186f9190612a46565b94506117ed565b8093505050505b919050565b600073ffffffffffffffffffffffffffffffffffffffff168273ffffffffffffffffffffffffffffffffffffffff1614156118f2576040517f08c379a00000000000000000000000000000000000000000000000000000000081526004016118e990612b23565b60405180910390fd5b6118fb81611378565b1561193b576040517f08c379a000000000000000000000000000000000000000000000000000000000815260040161193290612b8f565b60405180910390fd5b6119476000838361149a565b6001600360008473ffffffffffffffffffffffffffffffffffffffff1673ffffffffffffffffffffffffffffffffffffffff168152602001908152602001600020600082825461199791906126a5565b92505081905550816002600083815260200190815260200160002060006101000a81548173ffffffffffffffffffffffffffffffffffffffff021916908373ffffffffffffffffffffffffffffffffffffffff160217905550808273ffffffffffffffffffffffffffffffffffffffff16600073ffffffffffffffffffffffffffffffffffffffff167fddf252ad1be2c89b69c2b068fc378daa952ba7f163c4a11628f55a4df523b3ef60405160405180910390a4611a586000838361149f565b5050565b828054611a68906120f1565b90600052602060002090601f016020900481019282611a8a5760008555611ad1565b82601f10611aa357805160ff1916838001178555611ad1565b82800160010185558215611ad1579182015b82811115611ad0578251825591602001919060010190611ab5565b5b509050611ade9190611ae2565b5090565b5b80821115611afb576000816000905550600101611ae3565b5090565b6000604051905090565b600080fd5b600080fd5b60007fffffffff0000000000000000000000000000000000000000000000000000000082169050919050565b611b4881611b13565b8114611b5357600080fd5b50565b600081359050611b6581611b3f565b92915050565b600060208284031215611b8157611b80611b09565b5b6000611b8f84828501611b56565b91505092915050565b60008115159050919050565b611bad81611b98565b82525050565b6000602082019050611bc86000830184611ba4565b92915050565b600081519050919050565b600082825260208201905092915050565b60005b83811015611c08578082015181840152602081019050611bed565b83811115611c17576000848401525b50505050565b6000601f19601f8301169050919050565b6000611c3982611bce565b611c438185611bd9565b9350611c53818560208601611bea565b611c5c81611c1d565b840191505092915050565b60006020820190508181036000830152611c818184611c2e565b905092915050565b6000819050919050565b611c9c81611c89565b8114611ca757600080fd5b50565b600081359050611cb981611c93565b92915050565b600060208284031215611cd557611cd4611b09565b5b6000611ce384828501611caa565b91505092915050565b600073ffffffffffffffffffffffffffffffffffffffff82169050919050565b6000611d1782611cec565b9050919050565b611d2781611d0c565b82525050565b6000602082019050611d426000830184611d1e565b92915050565b611d5181611d0c565b8114611d5c57600080fd5b50565b600081359050611d6e81611d48565b92915050565b60008060408385031215611d8b57611d8a611b09565b5b6000611d9985828601611d5f565b9250506020611daa85828601611caa565b9150509250929050565b600080600060608486031215611dcd57611dcc611b09565b5b6000611ddb86828701611d5f565b9350506020611dec86828701611d5f565b9250506040611dfd86828701611caa565b9150509250925092565b611e1081611c89565b82525050565b6000602082019050611e2b6000830184611e07565b92915050565b600060208284031215611e4757611e46611b09565b5b6000611e5584828501611d5f565b91505092915050565b611e6781611b98565b8114611e7257600080fd5b50565b600081359050611e8481611e5e565b92915050565b60008060408385031215611ea157611ea0611b09565b5b6000611eaf85828601611d5f565b9250506020611ec085828601611e75565b9150509250929050565b600080fd5b600080fd5b7f4e487b7100000000000000000000000000000000000000000000000000000000600052604160045260246000fd5b611f0c82611c1d565b810181811067ffffffffffffffff82111715611f2b57611f2a611ed4565b5b80604052505050565b6000611f3e611aff565b9050611f4a8282611f03565b919050565b600067ffffffffffffffff821115611f6a57611f69611ed4565b5b611f7382611c1d565b9050602081019050919050565b82818337600083830152505050565b6000611fa2611f9d84611f4f565b611f34565b905082815260208101848484011115611fbe57611fbd611ecf565b5b611fc9848285611f80565b509392505050565b600082601f830112611fe657611fe5611eca565b5b8135611ff6848260208601611f8f565b91505092915050565b6000806000806080858703121561201957612018611b09565b5b600061202787828801611d5f565b945050602061203887828801611d5f565b935050604061204987828801611caa565b925050606085013567ffffffffffffffff81111561206a57612069611b0e565b5b61207687828801611fd1565b91505092959194509250565b6000806040838503121561209957612098611b09565b5b60006120a785828601611d5f565b92505060206120b885828601611d5f565b9150509250929050565b7f4e487b7100000000000000000000000000000000000000000000000000000000600052602260045260246000fd5b6000600282049050600182168061210957607f821691505b6020821081141561211d5761211c6120c2565b5b50919050565b7f4552433732313a20617070726f76616c20746f2063757272656e74206f776e6560008201527f7200000000000000000000000000000000000000000000000000000000000000602082015250565b600061217f602183611bd9565b915061218a82612123565b604082019050919050565b600060208201905081810360008301526121ae81612172565b9050919050565b7f4552433732313a20617070726f76652063616c6c6572206973206e6f7420746f60008201527f6b656e206f776e6572206e6f7220617070726f76656420666f7220616c6c0000602082015250565b6000612211603e83611bd9565b915061221c826121b5565b604082019050919050565b6000602082019050818103600083015261224081612204565b9050919050565b7f57524f4e475f5052494345000000000000000000000000000000000000000000600082015250565b600061227d600b83611bd9565b915061228882612247565b602082019050919050565b600060208201905081810360008301526122ac81612270565b9050919050565b600081905092915050565b50565b60006122ce6000836122b3565b91506122d9826122be565b600082019050919050565b60006122ef826122c1565b9150819050919050565b7f4661696c656420746f2073656e64204574686572000000000000000000000000600082015250565b600061232f601483611bd9565b915061233a826122f9565b602082019050919050565b6000602082019050818103600083015261235e81612322565b9050919050565b7f4552433732313a2063616c6c6572206973206e6f7420746f6b656e206f776e6560008201527f72206e6f7220617070726f766564000000000000000000000000000000000000602082015250565b60006123c1602e83611bd9565b91506123cc82612365565b604082019050919050565b600060208201905081810360008301526123f0816123b4565b9050919050565b7f4552433732313a20696e76616c696420746f6b656e2049440000000000000000600082015250565b600061242d601883611bd9565b9150612438826123f7565b602082019050919050565b6000602082019050818103600083015261245c81612420565b9050919050565b7f4552433732313a2061646472657373207a65726f206973206e6f74206120766160008201527f6c6964206f776e65720000000000000000000000000000000000000000000000602082015250565b60006124bf602983611bd9565b91506124ca82612463565b604082019050919050565b600060208201905081810360008301526124ee816124b2565b9050919050565b600060408201905061250a6000830185611d1e565b6125176020830184611e07565b9392505050565b7f4552433732313a207472616e736665722066726f6d20696e636f72726563742060008201527f6f776e6572000000000000000000000000000000000000000000000000000000602082015250565b600061257a602583611bd9565b91506125858261251e565b604082019050919050565b600060208201905081810360008301526125a98161256d565b9050919050565b7f4552433732313a207472616e7366657220746f20746865207a65726f2061646460008201527f7265737300000000000000000000000000000000000000000000000000000000602082015250565b600061260c602483611bd9565b9150612617826125b0565b604082019050919050565b6000602082019050818103600083015261263b816125ff565b9050919050565b7f4e487b7100000000000000000000000000000000000000000000000000000000600052601160045260246000fd5b600061267c82611c89565b915061268783611c89565b92508282101561269a57612699612642565b5b828203905092915050565b60006126b082611c89565b91506126bb83611c89565b9250827fffffffffffffffffffffffffffffffffffffffffffffffffffffffffffffffff038211156126f0576126ef612642565b5b828201905092915050565b7f4552433732313a20617070726f766520746f2063616c6c657200000000000000600082015250565b6000612731601983611bd9565b915061273c826126fb565b602082019050919050565b6000602082019050818103600083015261276081612724565b9050919050565b7f4552433732313a207472616e7366657220746f206e6f6e20455243373231526560008201527f63656976657220696d706c656d656e7465720000000000000000000000000000602082015250565b60006127c3603283611bd9565b91506127ce82612767565b604082019050919050565b600060208201905081810360008301526127f2816127b6565b9050919050565b600081905092915050565b600061280f82611bce565b61281981856127f9565b9350612829818560208601611bea565b80840191505092915050565b60006128418285612804565b915061284d8284612804565b91508190509392505050565b7f45524337323155524953746f726167653a2055524920736574206f66206e6f6e60008201527f6578697374656e7420746f6b656e000000000000000000000000000000000000602082015250565b60006128b5602e83611bd9565b91506128c082612859565b604082019050919050565b600060208201905081810360008301526128e4816128a8565b9050919050565b600081519050919050565b600082825260208201905092915050565b6000612912826128eb565b61291c81856128f6565b935061292c818560208601611bea565b61293581611c1d565b840191505092915050565b60006080820190506129556000830187611d1e565b6129626020830186611d1e565b61296f6040830185611e07565b81810360608301526129818184612907565b905095945050505050565b60008151905061299b81611b3f565b92915050565b6000602082840312156129b7576129b6611b09565b5b60006129c58482850161298c565b91505092915050565b60006129d982611c89565b91507fffffffffffffffffffffffffffffffffffffffffffffffffffffffffffffffff821415612a0c57612a0b612642565b5b600182019050919050565b7f4e487b7100000000000000000000000000000000000000000000000000000000600052601260045260246000fd5b6000612a5182611c89565b9150612a5c83611c89565b925082612a6c57612a6b612a17565b5b828204905092915050565b6000612a8282611c89565b9150612a8d83611c89565b925082612a9d57612a9c612a17565b5b828206905092915050565b7f4e487b7100000000000000000000000000000000000000000000000000000000600052603260045260246000fd5b7f4552433732313a206d696e7420746f20746865207a65726f2061646472657373600082015250565b6000612b0d602083611bd9565b9150612b1882612ad7565b602082019050919050565b60006020820190508181036000830152612b3c81612b00565b9050919050565b7f4552433732313a20746f6b656e20616c7265616479206d696e74656400000000600082015250565b6000612b79601c83611bd9565b9150612b8482612b43565b602082019050919050565b60006020820190508181036000830152612ba881612b6c565b905091905056fe68747470733a2f2f73746f726167652e676f6f676c65617069732e636f6d2f717565656e2d6f662d626f6b2f726f756e64312f6d657461646174612e6a736f6ea26469706673582212201839ad9a03ff14fe9d3356a96bfde015383c61ec053bb755be5c9ad45d50403064736f6c63430008090033",
  "linkReferences": {},
  "deployedLinkReferences": {}
}